:060000000A128A11132907
:10000800F000030EF1000B181E210B192621710EAA
:080018008300F00E700E0900D8
:100200008A010A1482073F3406345B344F34663463
:100210006D347D3407347F34673477347C3439343B
:100220005E3479347134AB217C21A2212414522113
:100230005921A801A901AB016021172903138312D9
:10024000061C850A861C85030B1008000313831205
:10025000B021860124183A29A418342924194029E8
:10026000A4194629241A4C29230887008615A410AE
:10027000241508002208870006162410A41408007C
:100280002508880086172411A41508002608880070
:100290000617A411241608002708880086162412C1
:1002A0002414080005080F39A000050E0F39A1001D
:1002B000080020080021A20021080021A300080056
:1002C00003100508AB006430A80AAB0203186429C8
:1002D000A803AB0728080021A50003100A30A90ACB
:1002E000AB0203186F29A903AB0729080021A60058
:1002F0002B080021A7000800031783168801890135
:100300000313831606148614861306138612061228
:100310008611870188018501811315149514031333
:1003200083128501870188010313831681128111CD
:10033000011081100115031383160F178F120F126E
:100340000F14080003138316161496140313831254
:1003500006080B1008008B178B150B108B16080066
:08036000A03081000B11080020
:04400E00C430FF3F7C
:00000001FF
